:100000000C9449010C9471010C9471010C947101D0
:100010000C9471010C9471010C9471010C94710198
:100020000C9471010C9471010C9471010C94710188
:100030000C9471010C9471010C9471010C94710178
:100040000C946F080C9471010C942F080C940908FF
:100050000C9471010C9471010C9471010C94710158
:100060000C94B9080C9471010C9400000C940000DD
:100070000C9400000C94000019001A7A0300171663
:10008000180532360C043E1A722273F2FFFF190073
:100090001A7A03081715180432160C043E19721147
:1000A00073F1FFFF19001A7A03081713180132348D
:1000B000FFFF12008C00040040C0146A4F80508083
:1000C00051005222535E54803D40FFFF12013D0813
:1000D000413D76E1FFFF12048C00040040D0146A19
:1000E0004FB350B35100523D53A754E43D40FFFF7E
:1000F00012803A0412001713180132B619021A7A44
:10010000030A0C003E00703A7135721173F0A201BF
:1001100015007A207B107C1E7D357E5A7F698076A3
:1001200081808288838F849685A386AF87C488D791
:1001300089E813C0000010000D401418A505AB0796
:100140002495253326E39F78A068A103A6D8A7D8D5
:10015000A8F0A990AA9413C5300031000E610F4B8E
:1001600016021E07210222912907330B350B371D7A
:100170003871392A3C784D404E20690074108D4FFB
:100180008E008F009000910096009A00B084B10C10
:10019000B20EB382B80A430A44F0453446584728A1
:1001A000483A59885A885B445C675D495E0E6C0A20
:1001B0006D556E116F9E6A400140026013C74F80FB
:1001C000508051005222535E5480589E41083F0097
:1001D000750576E14C0077013D484B09C9605640F2
:1001E00034113B12A48296009730982099309A845B
:1001F0009B299C039D4C9E3F78047901C8F0790FA0
:10020000C8007910C87E790AC880790BC801790CBA
:10021000C80F790DC8207909C8807902C8C0790350
:10022000C8407905C8307926FFFF00000008500259
:1002300001000003040700000000000000000000AF
:1002400000000000250028002B002E000000000008
:10025000240027002A002D000404040404040404DC
:10026000020202020202030303030303050505055C
:10027000050505030102040810204080010204085E
:100280001020010204081020020801041020404040
:10029000D80911241FBECFEFD8E0DEBFCDBF24E0C8
:1002A000A0E4B1E001C01D92A931B207E1F711E06D
:1002B000A0E0B1E0ECEDFDE102C005900D92A034AC
:1002C000B107D9F711E0C9E4D1E004C02197FE01DC
:1002D0000E94F40CC834D107C9F70E94260A0C9476
:1002E000EC0E0C94000008950895AF92BF92CF9247
:1002F000DF92EF92FF920F931F93CF93DF936C01E6
:100300007B018B01040F151FEB015E01AE18BF08C6
:10031000C017D10759F06991D601ED91FC91019078
:10032000F081E02DC6010995892B79F7C501DF9190
:10033000CF911F910F91FF90EF90DF90CF90BF90E2
:10034000AF900895FC01538D448D252F30E0842F0C
:1003500090E0821B930B541710F0CF9608950197ED
:100360000895FC01918D828D9817A9F0A28DAE0F92
:10037000BF2FB11D5D968C91228D2F5F91E02A3F9A
:1003800008F490E0392F330F330F931B990F291B7B
:10039000228F90E008958FEF9FEF0895FC01918DDB
:1003A000828D981731F0828DE80FF11D858D90E0D8
:1003B00008958FEF9FEF0895FC01918D228D892F75
:1003C00090E086509F4F821B91096AEF70E00E9477
:1003D000E00C089587EA92E00E94DC0121E0892B7D
:1003E00009F420E0822F089580E090E0892B29F025
:1003F0000E94EA0181110C9400000895FC01A48D73
:10040000A80FB92FB11DA95EBE4F2C91848D90E02D
:1004100001968F739927848FA689B7892C93A08919
:10042000B1898C91837080648C93938D848D9813A3
:1004300006C00288F389E02D80818F7D8083089536
:10044000EF92FF920F931F93CF93DF93EC0181E024
:10045000888F9B8D8C8D98131AC0E889F9898081CB
:1004600085FF15C09FB7F894EE89FF896083E889FE
:10047000F98980818370806480839FBF81E090E0F0
:10048000DF91CF911F910F91FF90EF900895F62E7D
:100490000B8D10E00F5F1F4F0F731127E02E8C8D17
:1004A0008E110CC00FB607FCFACFE889F98980815C
:1004B00085FFF5CFCE010E94FE01F1CFEB8DEC0F51
:1004C000FD2FF11DE95EFE4FF0829FB7F8940B8F70
:1004D000EA89FB8980818062CFCFCF93DF93EC01E3
:1004E000888D8823B9F0AA89BB89E889F9898C911C
:1004F00085FD03C0808186FD0DC00FB607FCF7CFD8
:100500008C9185FFF2CF808185FFEDCFCE010E94D7
:10051000FE01E9CFDF91CF91089590E0FC01E65D07
:10052000FD4F2491FC01EC58FD4F3491885A9D4FAA
:10053000FC018491882361F12223C9F021502B30E2
:10054000B0F4E22FF0E0E955FD4F0C94F40CCD022D
:10055000D102B202C902B702B702D402DA02DE0245
:10056000E402E802909180009F7790938000E82F4A
:10057000F0E0EE0FFF1FE05CFD4FA591B4918FB747
:10058000F894EC91611128C030953E233C938FBFC5
:100590000895909180009F7DE8CF94B59F7794BD9A
:1005A000E6CF94B59F7DFBCF9091B0009F7790935D
:1005B000B000DDCF9091B0009F7DF9CF9091900079
:1005C0009F7790939000D3CF909190009F7DF9CF2B
:1005D00090919000977FF5CF3E2BD8CF3FB7F894FE
:1005E0008091A9019091AA01A091AB01B091AC01B9
:1005F00026B5A89B05C02F3F19F00196A11DB11D7E
:100600003FBFBA2FA92F982F8827BC01CD01620FB9
:10061000711D811D911D42E0660F771F881F991F74
:100620004A95D1F708958F929F92AF92BF92CF9241
:10063000DF92EF92FF924B015C010E94EE026B0190
:100640007C010E94EE026C197D098E099F09683EAB
:10065000734081059105A8F321E0821A9108A10851
:10066000B10888EEC80E83E0D81EE11CF11C81148D
:100670009104A104B10429F7FF90EF90DF90CF908F
:10068000BF90AF909F908F90089520918101260F89
:100690003327331F21323105ECF420917D02FC0118
:1006A00090E080E0243069F082E00895A09181011B
:1006B0002191AC014F595E4FA40FB52FB11D2C9362
:1006C0000196861798F380918101680F60938101EC
:1006D00080E0089581E0089510927D0281E080938A
:1006E0007C021092570261E082E10E948D0261E07B
:1006F00083E10E948D02E9EBF0E080818E7F8083B0
:1007000080818D7F808388E48093B80085E4809326
:10071000BC000895CF93DF9391E09093600188230C
:10072000B9F0C091B800D091BA008091BC008A7B2A
:100730008093BC0060E082E10E948D0260E083E172
:100740000E948D020E946C03D093BA00C093B8003F
:10075000DF91CF9108958F929F92AF92BF92CF92E7
:10076000DF92EF92FF920F931F93CF93DF93D0917D
:10077000A602D13208F0D7C0182FC091A5020E945E
:10078000EE026B017C0180917D0281116BC082E0E1
:1007900080937D0210937C028FEF80937B021092F6
:1007A0007A02D0937902A5E8B2E0E9E5F2E080E0D0
:1007B000D81391C01092580280915802CC0FC82BC8
:1007C000C093580280915702813009F088C010927E
:1007D00057020E94EE026B017C01809158028093C7
:1007E000BB0080917F0290918002A0918102B09124
:1007F0008202892B8A2B8B2BA1F00E94EE020091A2
:100800007F021091800220918102309182026C1946
:100810007D098E099F09061717072807390708F46D
:1008200042C08091BC0083FDD8CF85EC8093BC0092
:100830000E94EE026B017C0180917D02823009F4FE
:1008400050C080917B028F3F09F46FC080917B0282
:10085000803209F46CC080917B02803309F469C056
:1008600084E026C080917F0290918002A091810255
:10087000B0918202892B8A2B8B2B09F484CF0E94A2
:10088000EE0280907F0290908002A0908102B09052
:1008900082026C197D098E099F0986169706A806A3
:1008A000B90608F070CF80917E020E948A0385E02D
:1008B000109284021092A60210928302DF91CF91CF
:1008C0001F910F91FF90EF90DF90CF90BF90AF906E
:1008D0009F908F9008959D9191938F5F69CF85EE42
:1008E000A5CF80917F0290918002A0918102B0916A
:1008F0008202892B8A2B8B2B09F49ECF0E94EE0259
:1009000000917F0210918002209181023091820239
:100910006C197D098E099F090617170728073907E3
:1009200008F08ACFC0CF81E0C3CF80E0C1CF82E0A2
:10093000BFCF83E0BDCF0895E091B2018091B101B6
:10094000E81730F4F0E0E05CFE4F808190E008951D
:100950008FEF9FEF08959091B2018091B1012FEF39
:100960003FEF981748F4E92FF0E0E05CFE4F20815C
:1009700030E09F5F9093B201C90108958091B10169
:100980009091B201891B990B0895CF92DF92EF925B
:10099000FF920F931F93CF93DF937C01CB018A01CA
:1009A00020918302222389F0EB016B01C40ED51E36
:1009B000CC15DD0569F06991D701ED91FC910190AD
:1009C000F081E02DC7010995F3CF642F0E94450304
:1009D000C801DF91CF911F910F91FF90EF90DF90B1
:1009E000CF900895CF93DF931F92CDB7DEB7698381
:1009F000209183022223F9F02091A602203258F0A0
:100A000021E030E0FC013383228390E080E00F900E
:100A1000DF91CF91089580918402E82FF0E0EB57A9
:100A2000FD4F998190838F5F809384028093A6020B
:100A300081E090E0ECCF61E0CE0101960E94450399
:100A4000F7CF90E080E00895CF93C42FFC01808120
:100A500091E0909383028093A502109284021092F9
:100A6000A6028EEF93E00E94F2046C2F8EEF93E0CB
:100A70000E94F20481E00E94AB0391E0811190E0BA
:100A8000892FCF9108950F931F93CF93DF938C01FC
:100A9000EB01FE016491319644916F3F29F0C8014A
:100AA0000E9424052296F5CFDF91CF911F910F91DF
:100AB0000895CF93DF9300D0CDB7DEB7FC018285D8
:100AC00090E08917E9F11A99FECF1A9BFECF428177
:100AD0005381440F551F30E020E04217530739F08F
:100AE0001A99FECF1A9BFECF2F5F3F4FF6CF1A8287
:100AF00019821A99FECF1A9BFECF1A99FECF1A9B24
:100B0000FECF1A9B07C029813A812F5F3F4F3A835E
:100B10002983F7CF1A9907C029813A812F5F3F4F68
:100B20003A832983F7CF29813A81232B39F0298110
:100B30003A81215031093A832983F5CF9F5FC1CF94
:100B40000F900F90DF91CF9108959091C00095FF85
:100B5000FCCF6093C600862708950F931F93CF9311
:100B6000DF93FC01248135812115310571F140911C
:100B7000C00045FFFCCF1092C6004091C00045FF69
:100B8000FCCFEC012F5F2093C60063E180E00E9460
:100B9000A50510E000E02C813D810217130778F4D1
:100BA0002881398160E02115310521F0200F311FA6
:100BB000F90160810E94A5050F5F1F4FECCF909156
:100BC000C00095FFFCCF8093C600DF91CF911F91AD
:100BD0000F910895CF93C82F8091C00085FFFCCF5F
:100BE0001092C6008091C00085FFFCCF84E0809306
:100BF000C60061E180E00E94A50560EA0E94A505AB
:100C000068E70E94A5056C2F6295607F0E94A5058C
:100C10009091C00095FFFCCF8093C600CF910895BE
:100C2000FC0180819181009711F00C94960D08953C
:100C3000CF92DF92EF92FF920F931F93CF93DF93A8
:100C4000EC01888191E0909383028093A502109239
:100C500084021092A6028EEF93E00E94F20481E0DB
:100C60000E94AB03C8810E94EE026B017C0180915F
:100C70007D02811164C081E080937D0280937C02BB
:100C80009FEF90937B0210927A02109279028093E8
:100C9000580280915802CC0FC82BC0935802809103
:100CA0005702813009F082C0109257020E94EE0272
:100CB0006B017C01809158028093BB0080917F0280
:100CC00090918002A0918102B0918202892B8A2B9F
:100CD0008B2BA1F00E94EE0200917F021091800206
:100CE00020918102309182026C197D098E099F0941
:100CF000061717072807390708F442C08091BC007F
:100D000083FDD8CF85EC8093BC000E94EE026B017E
:100D10007C0180917D02813009F44AC080917A0281
:100D2000811168C080917A02E9E5F2E0A0E4B1E0C7
:100D300090E0981751F121912D939F5FFACF809108
:100D40007F0290918002A0918102B0918202892B52
:100D50008A2B8B2B09F48BCF0E94EE0200917F022D
:100D60001091800220918102309182026C197D09DC
:100D70008E099F09061717072807390708F077CF4C
:100D800080917E020E948A0380E01092B2018093DB
:100D9000B1018EEF93E00E94AB04DF91CF911F91E0
:100DA0000F91FF90EF90DF90CF90089585EEABCF3D
:100DB00080917F0290918002A0918102B091820285
:100DC000892B8A2B8B2B09F4A4CF0E94EE02009171
:100DD0007F021091800220918102309182026C1971
:100DE0007D098E099F09061717072807390708F09C
:100DF00090CFC6CF81E098CFFF920F931F93CF93F0
:100E0000DF938C01EC01299640E862E1CE010E945B
:100E10002405F82E64EF71E080E090E00E94130357
:100E2000FF2009F456C060EF70E0CE010E94430538
:100E3000F801848195816CEC70E08130910531F08E
:100E400066ED70E0029711F462EB70E0CE010E9453
:100E50004305F801828193818034F1E09F0709F412
:100E60003FC08038924009F042C064EA70E0CE0191
:100E70000E9443058AE0F801828765E1CE010E9465
:100E80001806482F406265E1CE010E9424056FE0FC
:100E9000CE010E941806482F40686FE0CE010E94E4
:100EA0002405F8014681406861E1CE010E942405D5
:100EB000F80117816BE6CE010E9418061295110FFA
:100EC000110F107C8F73412F482B6BE6CE010E94CF
:100ED00024058F2DDF91CF911F910F91FF900895E1
:100EE0006EE870E0CE010E94430585E0C4CF68E75C
:100EF00070E0CE010E94430582E0BDCF0F931F93A7
:100F0000CF93DF93EC0188819981009759F02A8172
:100F10003B812617370730F081E0DF91CF911F9199
:100F20000F9108958B016F5F7F4F0E941F0E0097F6
:100F300059F0998388831B830A832C813D81232B5D
:100F400059F7FC011082E8CF80E0E7CFEF92FF92E3
:100F50000F931F93CF93DF93EC017B018A01BA01BA
:100F60000E947E0728813981811114C02115310525
:100F700019F0C9010E94960D198218821D821C82E7
:100F80001B821A82CE01DF91CF911F910F91FF90AA
:100F9000EF9008951D830C83B701C9010E94E50EEF
:100FA000F1CF85ED8093BC0080917F02909180020B
:100FB000A0918102B09182020796A11DB11D23E08C
:100FC000B695A795979587952A95D1F72091BC005E
:100FD00024FD03C010927D02089540917F0250913C
:100FE00080026091810270918202452B462B472B33
:100FF00069F30097A105B10541F02AE22A95F1F7BE
:1010000000C00197A109B109E1CF80917E020C9443
:101010008A031F920F920FB60F9211242F933F93C2
:101020004F935F936F937F938F939F93AF93BF93F0
:10103000EF93FF9387EA92E00E94FE01FF91EF9108
:10104000BF91AF919F918F917F916F915F914F91E0
:101050003F912F910F900FBE0F901F9018951F92E8
:101060000F920FB60F9211242F935F936F937F937C
:101070008F939F93AF93BF93EF93FF93E091B7024A
:10108000F091B8028081E091BD02F091BE0282FD34
:1010900024C020818091C00290E001966AEF70E048
:1010A0000E94E00C9091C102981741F0E091C002BB
:1010B000F0E0E955FD4F258F8093C002FF91EF913D
:1010C000BF91AF919F918F917F916F915F912F9180
:1010D0000F900FBE0F901F9018958081EFCF1F9239
:1010E0000F920FB60F9211242F933F938F939F93DC
:1010F000AF93BF938091A5019091A601A091A70104
:10110000B091A8013091A40123E0230F2D3758F5A9
:101110000196A11DB11D2093A4018093A501909378
:10112000A601A093A701B093A8018091A901909175
:10113000AA01A091AB01B091AC010196A11DB11D16
:101140008093A9019093AA01A093AB01B093AC0145
:10115000BF91AF919F918F913F912F910F900FBEB3
:101160000F901F90189526E8230F0296A11DB11D20
:10117000D2CF1F920F920FB60F9211242F933F934D
:101180004F935F936F937F938F939F93AF93BF938F
:10119000EF93FF938091B900887F803609F44AC0AD
:1011A000F0F5883209F4A7C018F5803109F49BC026
:1011B000B8F4882309F4F9C0883009F494C0FF9189
:1011C000EF91BF91AF919F918F917F916F915F91BF
:1011D0004F913F912F910F900FBE0F901F90189538
:1011E000883109F488C0803251F780937B0214C0A3
:1011F000803409F49DC040F48033B9F38833F9F6A4
:1012000080937B0285ECB0C0803509F485C08835B9
:1012100009F496C0883499F60E94D107D0CF883956
:1012200009F48CC038F5883729F050F4883611F06D
:10123000803729F683E080937D021092A30157C086
:10124000883809F47BC0803919F0803809F0B7CFAD
:101250008091A301803208F071C0E091A30181E088
:101260008E0F8093A3018091BB00F0E0ED57FE4FFD
:1012700080833DC0803B39F0E0F4803A09F479C0C6
:10128000883A09F09CCF84E080937D02109282011D
:1012900010928101E091AF01F091B0010995809128
:1012A000810181110FC081E0809381011092610161
:1012B00009C0803C09F4A6CF883C09F4A3CF883B41
:1012C00009F07DCFE091820181E08E0F8093820151
:1012D000F0E0EF59FE4F80818093BB009091820136
:1012E0008091810129C0809158028093BB0085ECD8
:1012F0008093BC0064CF90917A0280917902981714
:1013000058F5E0917A0281E08E0F80937A02F0E046
:10131000E75AFD4F8081E9CFE0917A0281E08E0F9C
:1013200080937A028091BB00F0E0E75AFD4F808302
:1013300090917A02809179029817C8F285E8D8CF07
:10134000E0917A0281E08E0F80937A028091BB0057
:10135000F0E0E75AFD4F808380917C0281115CCFE1
:1013600081E08093570284EA8093BC0010927D0252
:1013700026CF85EC8093BC0010927D028091A30162
:10138000803230F4E091A301F0E0ED57FE4F10827F
:101390006091A30170E0E091AD01F091AE0183E8AE
:1013A00091E009951092A3010ACF10927B0234CFED
:1013B000E7EAF2E01382128288EE93E0A0E0B0E068
:1013C00084839583A683B7832AE031E03183208329
:1013D00025EC30E03587248724EC30E037872687FA
:1013E00020EC30E0318B208B21EC30E0338B228BF2
:1013F00022EC30E0358B248B26EC30E0378B268BCB
:10140000118E128E138E148EEEEFF3E01382128281
:1014100084839583A683B7838CE191E09183808355
:10142000EAE0F4E08EE291E09183808380EA90E04C
:101430009383828382E090E09583848381E1868335
:101440001086178281E2818712860895CF93DF93F9
:10145000CDB7DEB76F970FB6F894DEBF0FBECDBF26
:101460008091F20080618EBB80E88093F2009EB391
:101470009093F2008093610091E0909361008093DB
:10148000610090936100789494B5926094BD94B596
:10149000916094BD95B5926095BD95B5916095BDEF
:1014A00090916E00916090936E00109281009091E7
:1014B000810092609093810090918100916090935F
:1014C0008100909180009160909380009091B10094
:1014D00094609093B1009091B00091609093B000AF
:1014E0009091910092609093910090919100916001
:1014F00090939100909190009160909390009091C2
:101500007A009B7F90937A0090917A0092609093FA
:101510007A0090917A00916090937A0090917A008D
:10152000906890937A001092C100809361001092AD
:101530006100E091B702F091B80282E08083E0910F
:10154000B302F091B4021082E091B502F091B602BC
:1015500080E180831092BF02E091BB02F091BC0257
:1015600086E08083E091B902F091BA0280818061C7
:101570008083E091B902F091BA0280818860808313
:10158000E091B902F091BA02808180688083E09195
:10159000B902F091BA0280818F7D80831092B201EE
:1015A0001092B101109284021092A6020E946C0364
:1015B00083E791E09093B0018093AF0184E791E0DD
:1015C0009093AE018093AD01E7E7F2E02491EBE563
:1015D000F2E08491882399F090E0880F991FFC0134
:1015E000E45BFD4FA591B491FC01E05CFD4F85915A
:1015F00094918FB7F894EC91E22BEC938FBF83E238
:101600008093B00089E08093B10081E08093B300C3
:101610001092B4006AE070E080E090E00E94130352
:101620008AE094E00E94FC06882309F499C068EBE4
:101630007BE080E090E00E9413038E010F5F1F4F5C
:1016400083EBE82E81E0F82E90E0C92E90E0D92EB1
:1016500082E00E94EA05F8944A9BFECF1A82198222
:101660001C821B821E821D8245E050E062E371E015
:10167000C8010E94A607C8010E94AD05C8010E94CA
:1016800010068AE094E00E94590528E730E0F092C5
:101690005402E09253021A99FECF1A9BFECFE3EB5D
:1016A000F1E01A99FECF1A9BFECF86B199B1907FD7
:1016B0008E70892B09F482E080831A99FECF1A9BE1
:1016C000FECF8091C00085FF10C0A0915302B09161
:1016D00054028C918093C6008091530290915402E1
:1016E000019690935402809353021A99FECF1A9B4D
:1016F000FECF96B189B1807F9F70892B81608183F5
:101700001A99FECF1A9BFECF8091C00085FF10C0B2
:10171000A0915302B09154028C918093C6008091A5
:101720005302909154020196909354028093530275
:10173000329682E0E335F80709F0B3CF1F8E1E8E94
:101740001A99FECF1A9BFECF1A99FECF1A9BFECF95
:101750001A9B21C08E8D9F8D01969F8F8E8FF8CF03
:1017600081E00E94EA0588E790E040EF51E020EA3E
:1017700030E06091C00065FFFCCF4093C6006091EF
:10178000C00065FFFCCF5093C6002150310989F796
:10179000019769F74CCF1A9906C08E8D9F8D0196DF
:1017A0009F8F8E8FF8CF8E8D9F8D892B31F08E8DF0
:1017B0009F8D01979F8F8E8FF6CFE0915302F0910E
:1017C000540282E0E335F80788F48091C00085FF79
:1017D000F8CF80818093C60080915302909154028B
:1017E00001969093540280935302E7CF2150310920
:1017F00009F04DCF78948091550290915602019650
:1018000090935602809355021B8A1A8A1D8A1C8A5D
:101810001F8A1E8A4AE0B8010E947F0CF8010190DD
:101820000020E9F73197AF01401B510BB801CE0101
:1018300042960E94A607198E188E1B8E1A8E1D8E38
:101840001C8E46E050E068E371E0CE0148960E94AD
:10185000A6078E899F898A889B88AC8CBD8CA80E30
:10186000B91E81149104F1F1892B91F0B501CE01DB
:1018700048960E947E078823A9F1288D398D8C8D8A
:101880009D8DB401820F931F0E94E50EBD8EAC8E1C
:101890001A8219821C821B821E821D82688D798D9C
:1018A0006115710529F04C8D5D8DC8010E94A60758
:1018B000C8010E94AD05C8010E941006CE014896DD
:1018C0000E941006CE0142960E941006C114D10457
:1018D00009F4BECE0E94EA01882309F4B9CE0E9421
:1018E0000000B6CE888D998D009711F00E94960D5C
:1018F000198E188E1D8E1C8E1B8E1A8EC9CFBB277B
:10190000FB015527AA27880F991FAA1FA41710F0BB
:10191000A41B83955051B9F7A05DAA3308F0A95DC7
:10192000A193009779F7B111B1931192CB010C9467
:10193000990CDC01FC01672F71917723E1F7329755
:1019400004C07C916D9370836291AE17BF07C8F39A
:1019500008952F923F924F925F926F927F928F9253
:101960009F92AF92BF92CF92DF92EF92FF920F932E
:101970001F93CF93DF93CDB7DEB7CA1BDB0B0FB638
:10198000F894DEBF0FBECDBF09942A8839884888F5
:101990005F846E847D848C849B84AA84B984C8848B
:1019A000DF80EE80FD800C811B81AA81B981CE0F82
:1019B000D11D0FB6F894DEBF0FBECDBFED01089567
:1019C000AA1BBB1B51E107C0AA1FBB1FA617B70765
:1019D00010F0A61BB70B881F991F5A95A9F7809581
:1019E0009095BC01CD010895EE0FFF1F0590F49175
:1019F000E02D09940F931F93CF93DF9382309105CD
:101A000010F482E090E0E0911704F091180430E0C7
:101A100020E0B0E0A0E0309799F42115310509F4F9
:101A20004AC0281B390B24303105D8F58A819B81A7
:101A30006115710589F1FB0193838283FE0111C059
:101A4000408151810281138148175907E0F04817FE
:101A5000590799F4109761F012960C931297139608
:101A60001C933296CF01DF91CF911F910F91089572
:101A70000093170410931804F4CF2115310551F089
:101A80004217530738F0A901DB019A01BD01DF01BC
:101A9000F801C1CFEF01F9CF909318048093170498
:101AA000CDCFFE01E20FF31F8193919322503109B4
:101AB00039832883D7CF2091150430911604232B26
:101AC00041F42091020130910301309316042093D8
:101AD000150420910001309101012115310541F4D7
:101AE0002DB73EB74091040150910501241B350BE1
:101AF000E0911504F0911604E217F307A0F42E1BF1
:101B00003F0B2817390778F0AC014E5F5F4F241761
:101B1000350748F04E0F5F1F50931604409315048D
:101B2000819391939FCFF0E0E0E09CCFCF93DF9340
:101B30000097E9F0FC01329713821282A0911704FA
:101B4000B0911804ED0130E020E01097A1F420815D
:101B50003181820F931F20911504309116042817AC
:101B6000390709F061C0F0931604E0931504DF9182
:101B7000CF910895EA01CE17DF07E8F54A815B812E
:101B80009E0141155105B1F7E901FB83EA834991B3
:101B90005991C40FD51FEC17FD0761F48081918125
:101BA0000296840F951FE90199838883828193812E
:101BB0009B838A83F0E0E0E012968D919C911397CD
:101BC0000097B9F52D913C911197CD010296820FA6
:101BD000931F20911504309116042817390739F600
:101BE000309751F51092180410921704B093160410
:101BF000A0931504BCCFD383C28340815181840F4D
:101C0000951FC817D90761F44E5F5F4F888199818E
:101C1000480F591F518340838A819B81938382831C
:101C20002115310509F0B0CFF0931804E0931704A3
:101C30009ECFFD01DC01C0CF13821282D7CFB0E06E
:101C4000A0E0E5E2FEE00C94AB0C8C01009751F4AF
:101C5000CB010E94FA0C8C01C801CDB7DEB7E0E1E0
:101C60000C94C70CFC01E60FF71F9C0122503109B0
:101C7000E217F30708F49DC0D901CD91DC911197CB
:101C8000C617D70798F0C530D10530F3CE010497B9
:101C90008617970708F3C61BD70B2297C193D193DA
:101CA0006D937C93CF010E94960DD6CF5B01AC1A49
:101CB000BD0A4C018C0E9D1EA0911704B091180412
:101CC000512C412CF12CE12C109731F58091150409
:101CD000909116048815990509F05CC046165706C0
:101CE00008F058C08091000190910101009741F4E3
:101CF0008DB79EB74091040150910501841B950B4F
:101D0000E817F90708F055C0F0931604E09315049E
:101D1000F90171836083A0CF8D919C9111971296E8
:101D20006C90129713967C901397A815B90559F5E6
:101D30006C0142E0C40ED11CCA14DB0420F1AC01DA
:101D40004A195B09DA011296159780F06282738254
:101D500051834083D9016D937C93E114F10471F0B8
:101D6000D7011396FC93EE93129776CF22968C0FA1
:101D70009D1FF90191838083F301EFCFF093180445
:101D8000E093170469CF4816590608F42C017D0129
:101D9000D3019ACFCB010E94FA0C7C01009749F045
:101DA000AE01B8010E94DC0EC8010E94960D8701A9
:101DB00053CF10E000E050CFFB01DC0102C00190E6
:101DC0000D9241505040D8F70895FB01DC0101907D
:0C1DD0000D920020E1F70895F894FFCF79
:101DDC000000190480000000000020027501A2011F
:101DEC006D02DC01B101CE0100000000F204C5045B
:101DFC0021059B04BE04AB049C04000000005905A3
:101E0C00FC065673796E63004672616D65200000A6
:00000001FF
